:1000000012C0189518951895189518951895189563
:100010001895189518951895189518951895189578
:100020001895189518958FE58DBFC8E3E0E24E2E20
:1000300084E08EBFD4E0F4E05F2EA89584B7082E4C
:10004000877F84BF88E1992781BD91BDEEEFF3E002
:10005000A0E6B0E088278D933197E9F766248FEB0F
:1000600081BB70E072BB8FEF87BB70E078BB80E034
:1000700084BB70E075BB929AECE2F1E003D0FBCF59
:10008000F894FFCF88EE93E00CD03197D9F708951C
:100090003197F1F70895689462F80895E89462F84A
:1000A0000895EF93FF93EE27E82BE92B31F0E0ED75
:1000B000F7E03197F1F70197D1F7FF91EF910895AC
:00000001FF
