:1000000012C0189518951895189518951895189563
:100010001895189518951895189518951895189578
:100020001895189518958FE58DBFC8E3E0E24E2E20
:1000300084E08EBFD4E0F4E05F2EA89584B7082E4C
:10004000877F84BF88E1992781BD91BDEEEFF3E002
:10005000A0E6B0E088278D933197E9F766248FEB0F
:1000600081BB70E072BB8FEF87BB70E078BB80E034
:1000700084BB70E075BBB99ABA9A81EA8FBD81E002
:100080008EBD87E886B980E487B99298909A919856
:10009000C09A979870916A00716070936A0080E0CE
:1000A00090E090934B0080934A0080E090E0909322
:1000B000490080934800869B04C084E690E020D1EC
:1000C000FACF81E090E0A8E6B0E08D939C93A8E69B
:1000D000B0E00D911C91043050E0150714F009F0C8
:1000E0000CC0929A84E690E00BD1929884E893E059
:1000F00007D1A8E6B0E0EED0EACF929A88EE93E07E
:10010000FFD092985AD088EC90E0FAD0869B3DC000
:1001100065D0A0E6B0E00D911C91083552E01507BE
:1001200010F009F001C002C0A2D02EC0A4E6B0E0D9
:100130000D911C91083552E0150710F009F001C02F
:1001400005C0A6D0E4E6F0E0CCD01EC0A2E6B0E048
:100150000D911C91083552E0150710F009F001C00F
:1001600002C074D011C0A6E6B0E00D911C91083514
:1001700052E0150710F009F001C005C09AD0E4E67E
:10018000F0E0AFD001C051D0C1CF929A80E090E0B2
:1001900090934B0080934A0080E090E09093490058
:1001A00080934800909A9198C09A979880ED97E034
:1001B000A7D0929880CFF894FFCF909A9198C09A48
:1001C00097988FEF90E090934B0080934A008FEFC9
:1001D00090E090934900809348000895379A07B1C2
:1001E000007F006007B99BD0A0E6B0E08D939C93A0
:1001F00007B1007F016007B992D0A2E6B0E08D930D
:100200009C9307B1007F026007B989D0A4E6B0E0F3
:100210008D939C9307B1007F036007B980D0A6E659
:10022000B0E08D939C9337980895909A9198C09AD6
:10023000979886E990E090934B0080934A0086E976
:1002400090E090934900809348000895909A919887
:10025000C09A97988CE890E090934B0080934A0066
:1002600080E090E090934900809348000895909A30
:100270009198C09A979880E090E090934B0080937B
:100280004A008CE890E090934900809348000895DC
:10029000909A9198C09A979880E090E090934B0044
:1002A00080934A0082E890E0909349008093480050
:1002B0000895909A9198C09A979882E890E09093C8
:1002C0004B0080934A0080E090E090934900809337
:1002D00048000895ED91FC91EF5FFF4FFC93EE9382
:1002E000089588EE93E00CD03197D9F708953197AF
:1002F000F1F70895689462F80895E89462F8089513
:10030000EF93FF93EE27E82BE92B31F0E0EAFFE0D3
:100310003197F1F70197D1F7FF91EF910895369A50
:100320003699FECF369A3699FECF84B195B10895AD
:00000001FF
