:1000000012C0189518951895189518951895189563
:100010001895189518951895189518951895189578
:100020001895189518958FE58DBFC8E3E0E24E2E20
:1000300084E08EBFD4E0F4E05F2EA89584B7082E4C
:10004000877F84BF88E1992781BD91BDEEEFF3E002
:10005000A0E6B0E088278D933197E9F766248FEB0F
:1000600081BB70E072BB8FEF87BB70E078BB80E034
:1000700084BB70E075BBB99ABA9A81EA8FBD81E002
:100080008EBD87E886B980E487B99298909A919856
:10009000C09A979870916A00716070936A0080E0CE
:1000A00090E090934B0080934A0080E090E0909322
:1000B000490080934800869B04C084E690E051D1BB
:1000C000FACF81E090E0A8E6B0E08D939C93A8E69B
:1000D000B0E00D911C91043050E0150714F009F0C8
:1000E0000CC0929A84E690E03CD1929884E893E028
:1000F00038D1A8E6B0E025D1EACF929A88EE93E015
:1001000030D19298869B89C0A0D0A0E6B0E00D9136
:100110001C91043F51E0150710F009F001C01AC00E
:10012000DDD0A2E6B0E00D911C91043F51E015072F
:1001300010F009F001C00DC0A4E6B0E00D911C91D3
:10014000043F51E0150710F009F001C001C0D7D0FD
:10015000E8CF62C0A2E6B0E00D911C91043F51E0EF
:10016000150710F009F001C01AC0A7D0A0E6B0E052
:100170000D911C91043F51E0150710F009F001C0EA
:100180000DC0A6E6B0E00D911C91043F51E01507AB
:1001900010F009F001C001C0C3D0E8CF3DC0A2E615
:1001A000B0E00D911C91043F51E0150780E010F084
:1001B00009F081E08F93A0E6B0E00D911C91043F1F
:1001C00051E0150780E010F009F081E09F9189234C
:1001D000882309F402C060D01FC0A4E6B0E00D91EE
:1001E0001C91043F51E0150780E010F009F081E018
:1001F0008F93A6E6B0E00D911C91043F51E01507E6
:1002000080E010F009F081E09F918923882309F4B0
:1002100002C042D001C040D075CF929A80E090E0F9
:1002200090934B0080934A0080E090E090934900C7
:1002300080934800909A9198C09A979880ED97E0A3
:1002400090D0929838CFF894FFCF379A07B1007FBB
:10025000006007B995D0A0E6B0E08D939C9307B1FC
:10026000007F016007B98CD0A2E6B0E08D939C932B
:1002700007B1007F026007B983D0A4E6B0E08D9398
:100280009C9307B1007F036007B97AD0A6E6B0E07F
:100290008D939C9337980895909A9198C09A9798C7
:1002A0008EEB90E090934B0080934A008EEB90E0B1
:1002B00090934900809348000895909A9198C09A2D
:1002C000979884EB90E090934B0080934A0080E0F5
:1002D00090E090934900809348000895909A9198F7
:1002E000C09A979880E090E090934B0080934A00EA
:1002F00084EB90E090934900809348000895909A91
:100300009198C09A979880E090E090934B008093EA
:100310004A0080EA90E09093490080934800089555
:10032000909A9198C09A979880EA90E090934B00A9
:1003300080934A0080E090E09093490080934800C9
:100340000895ED91FC91EF5FFF4FFC93EE930895BC
:100350003197F1F70895689462F80895E89462F887
:100360000895EF93FF93EE27E82BE92B31F0E0EAB5
:10037000FFE03197F1F70197D1F7FF91EF910895E1
:10038000369A3699FECF369A3699FECF84B195B11A
:020390000895CE
:00000001FF
