:1000000012C0189518951895189518951895189563
:100010001895189518951895189518951895189578
:100020001895189518958FE58DBFC8E3E0E24E2E20
:1000300084E08EBFD4E0F4E05F2EA89584B7082E4C
:10004000877F84BF88E1992781BD91BDEEEFF3E002
:10005000A0E6B0E088278D933197E9F766248FEB0F
:1000600081BB70E072BB8FEF87BB70E078BB80E034
:1000700084BB70E075BB869902C0929A01C09298C9
:10008000FACFF894FFCF3197F1F70895689462F8AA
:080090000895E89462F8089558
:00000001FF
