:1000000012C0189518951895189518951895189563
:100010001895189518951895189518951895189578
:100020001895189518958FE58DBFC8E3E0E24E2E20
:1000300084E08EBFD4E0F4E05F2EA89584B7082E4C
:10004000877F84BF88E1992781BD91BDEEEFF3E002
:10005000A0E6B0E088278D933197E9F766248FEB0F
:1000600081BB70E072BB8FEF87BB70E078BB80E034
:1000700084BB70E075BB87E886B980E487B9379A9E
:1000800007B1007F026007B91ED0A0E6B0E08D93F3
:100090009C93A0E6B0E00D911C91043650E015074A
:1000A00010F009F001C002C0929A01C09298E8CF06
:1000B000F894FFCF3197F1F70895689462F80895A6
:1000C000E89462F80895369A3699FECF369A3699B2
:0800D000FECF84B195B1089543
:00000001FF
