:1000000012C0189518951895189518951895189563
:100010001895189518951895189518951895189578
:100020001895189518958FE58DBFC8E3E0E24E2E20
:1000300084E08EBFD4E0F4E05F2EA89584B7082E4C
:10004000877F84BF88E1992781BD91BDEEEFF3E002
:10005000A0E6B0E088278D933197E9F766248FEB0F
:1000600081BB70E072BB8FEF87BB70E078BB80E034
:1000700084BB70E075BBB99ABA9A81EA8FBD81E002
:100080008EBD909A9198C09A97988CE890E0909342
:100090004B0080934A008CE890E090934900809355
:1000A000480080E08093600000916000003009F01B
:1000B0001DC0AAE4B0E00D911C9141E050E0040F96
:1000C000151F802F912F90934B0080934A00A8E436
:1000D000B0E00D911C9141E050E0040F151F802FFE
:1000E000912F90934900809348001CC0AAE4B0E08F
:1000F0000D911C9141E050E0041B150B802F912FB6
:1001000090934B0080934A00A8E4B0E00D911C91BD
:1001100041E050E0041B150B802F912F9093490074
:1001200080934800AAE4B0E00D911C910F3F50E08D
:10013000150709F004C081E0809360000CC0AAE4B8
:10014000B0E00D911C910C3850E0150709F003C088
:1001500080E08093600082E390E00CD0A5CFF8941B
:10016000FFCF3197F1F70895689462F80895E89405
:1001700062F80895EF93FF93EE27E82BE92B31F017
:10018000E0EAFFE03197F1F70197D1F7FF91EF91A6
:020190000895D0
:00000001FF
