:1000000012C0189518951895189518951895189563
:100010001895189518951895189518951895189578
:100020001895189518958FE58DBFC8E3E0E24E2E20
:1000300084E08EBFD4E0F4E05F2EA89584B7082E4C
:10004000877F84BF88E1992781BD91BDEEEFF3E002
:10005000A0E6B0E088278D933197E9F766248FEB0F
:1000600081BB70E072BB8FEF87BB70E078BB80E034
:1000700084BB70E075BB87E886B980E487B9379A9E
:1000800007B1007F006007B974D0A0E6B0E08D939F
:100090009C9307B1007F016007B96BD0A2E6B0E086
:1000A0008D939C9307B1007F026007B962D0A4E6EC
:1000B000B0E08D939C9307B1007F036007B959D0DE
:1000C000A6E6B0E08D939C93A0E6B0E00D911C9164
:1000D000043853E0150780E010F009F081E08F93B9
:1000E000A2E6B0E00D911C91043853E0150780E0C2
:1000F00010F009F081E09F91892B8F93A2E6B0E088
:100100000D911C91043853E0150780E010F009F0C0
:1001100081E09F91892B8F93A4E6B0E00D911C9113
:10012000043853E0150780E010F009F081E09F915A
:10013000892B8F93A6E6B0E00D911C91043853E013
:10014000150780E010F009F081E09F91892B88234A
:1001500009F402C0929A01C0929892CFF894FFCF0E
:100160003197F1F70895689462F80895E89462F879
:100170000895369A3699FECF369A3699FECF84B1D5
:0401800095B1089598
:00000001FF
